:020000040800F2
:1000000000C00020F9020008FF02000803030008F6
:100010007503000879030008C10300080000000010
:1000200000000000000000000000000009040008BB
:100030000D04000800000000110400081504000869
:1000400025040008250400082504000825040008EC
:1000500025040008250400082504000825040008DC
:1000600025040008250400082504000825040008CC
:1000700025040008250400082504000825040008BC
:1000800025040008250400082504000825040008AC
:10009000250400082504000825040008250400089C
:1000A000250400082504000825040008250400088C
:1000B0005919000825040008250400082504000833
:1000C000250400082504000825040008250400086C
:1000D000250400082504000825040008250400085C
:1000E000250400082504000825040008250400084C
:1000F000250400082504000825040008250400083C
:10010000250400082504000825040008250400082B
:10011000250400082504000825040008250400081B
:10012000250400082504000825040008250400080B
:1001300000000000000000000000000000000000BF
:1001400000000000000000000000000000000000AF
:10015000000000000000000000000000000000009F
:10016000000000000000000000000000000000008F
:10017000000000000000000000000000000000007F
:10018000000000000000000000000000000000006F
:10019000000000000000000000000000000000005F
:1001A000000000000000000000000000000000004F
:1001B000000000000000000000000000000000003F
:1001C000000000000000000000000000000000002F
:1001D000000000000000000000000000000000001F
:1001E0005FF8E0F100B583B001F08AF8304B314A96
:1001F0001360314A1360314B314A03E011681960D2
:10020000043304322F498B42F8D32A4B1A682E4B01
:100210009A4200D0FEE7284B1A682C4B9A42F9D13B
:10022000234B2B4A13602B4A13602B4B02E0002216
:100230001A600433294A9342F9D3254B1B6813B93A
:10024000244B1B6803B1FEE701F066F8694601A87C
:1002500000F0E8FF224B234CE41AA4100025AC4226
:1002600014DC214B214CE41AA4100025AC4213DC11
:100270000099019801F04AFB05461D4B1D4CE41AFC
:10028000A410002C0EDC284600F09EFF144B53F8FF
:10029000253098470135E2E7134B53F8253098474E
:1002A0000135E3E7013C124B53F824309847E8E767
:1002B000BABADECA000000209C0000200000002026
:1002C000F0240008A00000207856341232547698AA
:1002D000A00000203C010020A000002040010020E0
:1002E000500400085004000850040008500400089E
:1002F000500400085004000808B5FFF773FF00BE63
:10030000FEE71EF0040F0CBFEFF30880EFF3098047
:100310007146414A10472DE9F04182B004468846B3
:10032000124B5E6B9F6B9D6A1B6B13F0020F03D029
:100330000E4BDB6A002B0CDB0D4800F085FFCDF87F
:1003400000803B4632462946204600F0E9FF00BEC9
:10035000FEE74BF6AB6101F05DF80028ECD04FF002
:100360000042024BDA6202B0BDE8F08100ED00E02D
:100370009024000800BEFEE71EF0040F0CBFEFF350
:100380000880EFF309807146244A10472DE9F041B7
:1003900082B004468846084B5E6B9F6B9D6A074897
:1003A00000F052FFCDF800803B46324629462046F9
:1003B00000F0B6FF00BEFEE700ED00E0A02400085C
:1003C0001EF0040F0CBFEFF30880EFF309807146B5
:1003D000134A10472DE9F04182B004468846084B85
:1003E0005E6B9F6B9D6A074800F02EFFCDF8008082
:1003F0003B4632462946204600F092FF00BEFEE70B
:1004000000ED00E0AC24000800BEFEE700BEFEE701
:1004100000BEFEE770470000170300088D030008C8
:08042000D503000800BEFEE751
:10042800F024000800000020A0000020F0240008AC
:100438000000000000000000A00000204001002093
:080448000000000000000000AC
:1004500010B50446B0F5E06F0FD0B0F5C06F0CD00A
:10046000B0F5A06F09D0B0F5806F06D0B0F5407F31
:1004700003D06321044800F0DDFE44F0BF6444F47F
:100480000034024BDC6010BD4422000800ED00E0A7
:1004900010B50446C378012B03D97521204800F01C
:1004A000C9FE63780F2B10D8A3780F2B12D8E378EE
:1004B000ABB923785A0903F01F03012101FA03F3B2
:1004C0002032184941F8223010BD7621144800F03E
:1004D000B1FEE9E77721124800F0ACFEE7E7124BE6
:1004E000DA68D243C2F30222C2F104000F2121FADA
:1004F00002F263788340A1780A4013431B012278FB
:10050000DBB208490A4482F800332378580903F023
:100510001F03012202FA03F341F8203010BD00BF8F
:100520004422000800E100E000ED00E0F8B50546D7
:100530000C46484B98421BD003F58063984217D075
:1005400003F58063984213D003F5806398420FD07F
:1005500003F5806398420BD003F58063984207D07F
:1005600003F58063984203D0B2213B4800F062FE5D
:10057000E3788BB1042B0FD0282B0DD0482B0BD058
:10058000142B09D0102B07D01C2B05D0182B03D00F
:10059000B321314800F04EFE238893B1E37803F095
:1005A0000F06304613F0100F06D0A378013BDBB2E4
:1005B000022B0BD8A0783043237833B32E68002366
:1005C0000BE0B421244800F035FEE7E7BB212248C8
:1005D00000F030FEEEE76A610133072B14D80122E8
:1005E0009A40218832EA0101F6D199000F278F4005
:1005F00026EA070600FA01F10E43E1782829EAD03D
:100600004829E9D12A61E7E72E602388FF2B20D90A
:100610006E68002302E06A6115E00133072B17D8EA
:1006200003F1080101228A40218832EA0101F4D154
:1006300099000F278F4026EA070600FA01F10E43C2
:10064000E1782829E7D0E1784829E6D12A61E4E772
:100650006E60F8BD000801406C22000838B5044601
:100660000D46144B98421CD003F58063984218D075
:1006700003F58063984214D003F58063984210D04C
:1006800003F5806398420CD003F58063984208D04C
:1006900003F58063984204D040F26911064800F0E7
:1006A000C9FD0DB1256138BD4FF4B571024800F0A8
:1006B000C1FDF7E7000801406C22000838B5044688
:1006C0000D46144B98421CD003F58063984218D015
:1006D00003F58063984214D003F58063984210D0EC
:1006E00003F5806398420CD003F58063984208D0EC
:1006F00003F58063984204D040F27911064800F077
:1007000099FD0DB1656138BD4FF4BD71024800F02F
:1007100091FDF7E7000801406C22000810B4294B56
:100720005B6803F00C03042B2BD0082B2CD013B1E7
:10073000254B036001E0244B036022494B68C3F35F
:100740000313224CE35CDAB20368D34043604A6887
:10075000C2F30222A25CD2B223FA02F282604A6899
:10076000C2F3C222A25CD2B2D340C3604A68C2F3D1
:10077000813217498A5CD2B2B3FBF2F3036110BC39
:100780007047114B0360D8E70E4A53685268C3F3B1
:100790008343023312F4803F09D00A4A526812F4AC
:1007A000003F09D00B4A02FB03F30360C5E7094A87
:1007B00002FB03F30360C0E7034A02FB03F3036099
:1007C000BBE700BF0010024000127A0008000020C2
:1007D0000400002000093D0038B504460D460E4BCC
:1007E000034003B920B940F24A410C4800F022FD11
:1007F000012D04D940F24B41084800F01BFD2DB9F2
:10080000074A936923EA0404946138BD044B9A694A
:1008100014439C6138BD00BF0200C0FFA022000845
:100820000010024038B504460D460E4B184200D168
:1008300020B940F269410C4800F0FCFC012D04D9BC
:1008400040F26A41084800F0F5FC2DB9074AD36927
:1008500023EA0404D46138BD044BDA691443DC6133
:1008600038BD00BF00360181A02200080010024000
:1008700038B504460D46524B984242D0B0F1804FF5
:100880003FD0A3F5943398423BD003F58063984260
:1008900037D003F58063984233D003F580639842E4
:1008A0002FD003F5806398422BD003F59033984204
:1008B00027D003F5C053984223D003F580639842B4
:1008C0001FD003F5806398421BD0A3F59E33984256
:1008D00017D003F58063984213D003F580639842E4
:1008E0000FD003F5903398420BD003F58063984204
:1008F00007D003F58063984203D0E721314800F028
:1009000099FC6B885BB1102B09D0202B07D0402BB2
:1009100005D0602B03D0E8212A4800F08BFCEB883F
:100920004BB1B3F5807F06D0B3F5007F03D0E9214A
:10093000244800F07FFC23889BB2214A944212D0C5
:1009400002F5006294420ED0B4F1804F0BD0A2F5B4
:100950009832944207D002F58062944203D002F5A7
:100960008062944203D123F070036A881343164ACD
:10097000944208D002F58062944204D023F440737C
:100980009BB2EA8813432380AB88A3852B882385F9
:100990000B4B9C420FD003F500639C420BD003F538
:1009A00040639C4207D003F580639C4203D003F56B
:1009B00080639C4201D12B7A23860123A38238BD18
:1009C000002C0140D02200080010004038B5044639
:1009D0000D462E4B984243D0B0F1804F40D0A3F546
:1009E000943398423CD003F58063984238D003F5A5
:1009F0008063984234D003F58063984230D003F589
:100A0000806398422CD003F59033984228D003F5A8
:100A1000C053984224D003F58063984220D003F558
:100A2000806398421CD0A3F59E33984218D003F5FA
:100A30008063984214D003F58063984210D003F588
:100A4000903398420CD003F58063984208D003F5A8
:100A50008063984204D040F229310D4800F0EAFB4F
:100A6000012D04D940F22A31094800F0E3FB35B9E1
:100A700023889BB223F001039BB2238038BD2388D7
:100A80009BB243F00103238038BD00BF002C01401E
:100A9000D022000870B504460D461646314B9842E8
:100AA00043D0B0F1804F40D0A3F5943398423CD06E
:100AB00003F58063984238D003F58063984234D0C0
:100AC00003F58063984230D003F5806398422CD0C0
:100AD00003F59033984228D003F5C053984224D0B0
:100AE00003F58063984220D003F5806398421CD0C0
:100AF000A3F59E33984218D003F58063984214D032
:100B000003F58063984210D003F5903398420CD0DF
:100B100003F58063984208D003F58063984204D0BF
:100B200040F26B31104800F085FB15F47F4F00D187
:100B300025B94FF45B710C4800F07CFB012E04D901
:100B400040F26D31084800F075FB2EB9A389ED43E2
:100B5000ADB21D40A58170BDA3899BB21D43A58187
:100B600070BD00BF002C0140D022000838B50446FB
:100B70000D462A4B984243D0B0F1804F40D0A3F5A8
:100B8000943398423CD003F58063984238D003F503
:100B90008063984234D003F58063984230D003F5E7
:100BA000806398422CD003F59033984228D003F507
:100BB000C053984224D003F58063984220D003F5B7
:100BC000806398421CD0A3F59E33984218D003F559
:100BD0008063984214D003F58063984210D003F5E7
:100BE000903398420CD003F58063984208D003F507
:100BF0008063984204D040F63621094800F01AFB81
:100C000015F4614F00D125B940F63721044800F0B2
:100C100011FBED43ADB2258238BD00BF002C014071
:100C2000D022000838B504460D46344B984243D0D4
:100C3000B0F1804F40D0A3F5943398423CD003F5F7
:100C40008063984238D003F58063984234D003F52E
:100C50008063984230D003F5806398422CD003F52E
:100C60009033984228D003F5C053984224D003F51E
:100C70008063984220D003F5806398421CD0A3F58E
:100C80009E33984218D003F58063984214D003F540
:100C90008063984210D003F5903398420CD003F54E
:100CA0008063984208D003F58063984204D040F6F0
:100CB0005821134800F0BEFA6B1E9BB2012B10D9CD
:100CC000042D0ED0082D0CD0102D0AD0202D08D0C8
:100CD000402D06D0802D04D040F65921084800F060
:100CE000A9FA228AA3892B40154202D01BB9002001
:100CF00038BD002038BD012038BD00BF002C0140A8
:100D0000D022000838B504460D462A4B984243D0FD
:100D1000B0F1804F40D0A3F5943398423CD003F516
:100D20008063984238D003F58063984234D003F54D
:100D30008063984230D003F5806398422CD003F54D
:100D40009033984228D003F5C053984224D003F53D
:100D50008063984220D003F5806398421CD0A3F5AD
:100D60009E33984218D003F58063984214D003F55F
:100D70008063984210D003F5903398420CD003F56D
:100D80008063984208D003F58063984204D040F60F
:100D90008221094800F04EFA15F47F4F00D125B9A1
:100DA00040F68321044800F045FAED43ADB22582B8
:100DB00038BD00BF002C0140D022000830B587B0FC
:100DC00004460D46654B984213D0A3F574439842F0
:100DD0000FD003F5806398420BD003F580639842EF
:100DE00007D003F58063984203D0B8215C4800F037
:100DF00021FA2B68013B5B4A934200F29480AB8856
:100E000033B1B3F5805F03D0BA21554800F012FA30
:100E1000EB8863B1B3F5805F09D0B3F5005F06D00E
:100E2000B3F5405F03D0BB214D4800F003FA2B8996
:100E30004BB1B3F5806F06D0B3F5C06F03D0BC21C2
:100E4000474800F0F7F96A8922F00C039BB203B916
:100E50001AB9BD21424800F0EDF9AB8963B1B3F591
:100E6000807F09D0B3F5007F06D0B3F5407F03D073
:100E7000BE213B4800F0DEF9AB8973B1374B9C4291
:100E80000BD0A3F574439C4207D003F580639C42CA
:100E900003D0C221324800F0CDF9238A9BB2EA8800
:100EA00023F4405313432382A3899BB2A988288942
:100EB0006A8901430A4323F4B05323F00C0313431C
:100EC000A381A38A9BB2AA8923F440731343A3820C
:100ED00001A8FFF723FC214B9C4229D0039BA28948
:100EE00012F4004F26D103EB830303EB830329683D
:100EF0008900B3FBF1F11C4BA3FB01235809050149
:100F0000642300FB1313A28912F4004F1BD11B01B1
:100F10003233154AA2FB0323C3F343132B439BB283
:100F2000238107B030BDB9210D4800F083F966E791
:100F3000049BD4E703EB830303EB83032968490095
:100F4000B3FBF1F1D7E7D9003231074AA2FB0131F7
:100F5000C1F3421245EA0203E1E700BF0038014055
:100F6000002300081FAA44001F85EB5138B5044632
:100F70000D46164B984214D0A3F57443984210D0F6
:100F800003F5806398420CD003F58063984208D043
:100F900003F58063984204D04FF4B1710C4800F01F
:100FA00049F9012D04D940F26311094800F042F9D2
:100FB00035B9A3899BB223F400539BB2A38138BDFA
:100FC000A3899BB243F40053A38138BD003801408C
:100FD0000023000870B504460D461646374B98426C
:100FE00014D0A3F57443984210D003F5806398425F
:100FF0000CD003F58063984208D003F580639842D3
:1010000004D040F289112E4800F014F9282D1ED08A
:1010100040F227739D421AD040F226639D4216D0BB
:1010200040F225539D4212D040F224439D420ED0FF
:1010300040F646039D420AD040F66A139D4206D010
:10104000602D04D04FF4C5711D4800F0F3F8012E57
:1010500004D940F28B111A4800F0ECF840F66A13FC
:101060009D4211D0C5F3421205F01F05012303FA7A
:1010700005F59A4219D0022A19D01434CEB9236842
:1010800023EA0505256070BD0C4B9C42EAD0A3F510
:1010900074439C42E6D003F580639C42E2D040F268
:1010A0008F11074800F0C6F8DCE70C34E6E710348F
:1010B000E4E723681D43256070BD00BF0038014090
:1010C0000023000838B504460D46124B984214D050
:1010D000A3F57443984210D003F5806398420CD076
:1010E00003F58063984208D003F58063984204D0EA
:1010F00040F25F21084800F09DF8B5F5007F03D26B
:10110000C5F30805A58038BD4FF41871024800F0FA
:1011100091F8F5E7003801400023000838B505468E
:101120000C46274B984214D0A3F57443984210D034
:1011300003F5806398420CD003F58063984208D091
:1011400003F58063984204D040F286311D4800F0D8
:1011500071F8012C18D0802C16D0402C14D0202CE3
:1011600012D0102C10D0B4F5807F0DD0B4F5007FD4
:101170000AD0082C08D0042C06D0022C04D040F24F
:101180008731104800F056F8B4F5007F04D02B8862
:101190001C4212D1002038BD094B9D42F7D0A3F567
:1011A00074439D42F3D003F580639D42EFD040F23B
:1011B0008B31044800F03EF8E9E7012038BD00BF5C
:1011C0000038014000230008FEE7000008B503488E
:1011D00000F052F80120FFF7F7FF00BF34230008AA
:1011E00008B503460C4A12685AB10B4A106803331B
:1011F00023F003030344094A934206D8064A1360C6
:1012000008BD0749044A1160EFE700F0CBFB0C234F
:1012100003604FF0FF3008BDA400002000BC002098
:101220004001002001230360014B0B60704700BFA9
:101230001800002008B50A460146024800F004F8EC
:10124000FFF7C4FF482300080FB400B583B004AB18
:1012500053F8042B01938021064800F0DDFB0028A1
:1012600003DD0146034800F047F803B05DF804EBE6
:1012700004B07047AC00002010B5044600F098FBA5
:101280000146204600F038F80121024800F034F809
:1012900010BD00BF0C2400082DE9F04385B00446C2
:1012A0000F4643560BB10E461EE004252846214644
:1012B000ABBE0446384605B0BDE8F08314F9011B07
:1012C00004AA1A4402F8101C0133AB42F6D304AA54
:1012D0001344002203F8102CE9464FF0040840465E
:1012E0004946ABBE8046761B002EE3D03546102E15
:1012F00028BF10250023E8E708B5FFF7CDFF08BD9C
:1013000008B500F0FDF8024B024A9A6008BD00BF24
:1013100000ED00E00000000808B500F019F908BD74
:10132000F8B504460D4617461E462748FFF78CFFC2
:1013300021682648FFF788FF61682548FFF784FF8A
:10134000A1682448FFF780FFE1682348FFF77CFF8E
:1013500021692248FFF778FF61692148FFF774FF90
:10136000A1692048FFF770FFE1691F48FFF76CFF94
:101370001E48FFF769FF29461D48FFF765FF1D4C12
:10138000E16A1D48FFF760FF216B1C48FFF75CFF17
:10139000E16B1B48FFF758FF15F0800F0AD115F4D9
:1013A000004F0CD11748FFF74FFF06991648FFF77B
:1013B0004BFFF8BD39461548FFF746FFEFE73146CA
:1013C0001348FFF741FFEDE774230008842300086A
:1013D00094230008A4230008B4230008C4230008B1
:1013E000D4230008E4230008F423000804240008A0
:1013F0001024000800ED00E020240008302400083C
:1014000040240008702400087824000850240008B4
:101410006024000883691A888A4201D0002070473E
:101420000268033A012A03D802338361012070471E
:101430000020704782B00023019300932C4A136868
:1014400043F4803313602A4B1B6803F4003300938A
:10145000019B01330193009B1BB9019BB3F5A06F66
:10146000F1D1234B1B6813F4003F06D001230093F6
:10147000009B012B04D002B0704700230093F7E7D4
:101480001C4B1A6842F010021A601A6822F003021C
:101490001A601A6842F002021A60A3F580535A6873
:1014A0005A605A685A605A6842F480625A605A68B0
:1014B00022F47C125A605A6842F4E8125A601A68A0
:1014C00042F080721A600A4B1B6813F0007FFAD05A
:1014D000074B5A6822F003025A605A6842F002022F
:1014E0005A60034B5B6803F00C03082BF9D1C2E789
:1014F000001002400020024008B5FFF79BFF08BD26
:1015000008B5104B1A6842F001021A6059680E4A79
:101510000A405A601A6822F0847222F480321A60FB
:101520001A6822F480221A605A6822F4FE025A6075
:101530004FF41F029A60FFF7DFFF4FF00062034B8A
:101540009A6008BD001002400000FFF800ED00E0C6
:101550001F4B5B6803F00C03042B15D0082B17D02E
:101560001BB11C4A1C4B1A6002E01A4A1A4B1A6043
:10157000174B5B68C3F30313184AD35CDAB21649FE
:101580000B68D3400B607047124A134B1A60EFE7A9
:101590000F4A53685268C3F38343023312F4803F07
:1015A0000AD00B4A526812F4003F0BD00C4A02FBDF
:1015B00003F3094A1360DBE7094A02FB03F3064A17
:1015C0001360D5E7034A02FB03F3034A1360CFE736
:1015D0000010024000127A0030000020200000209D
:1015E00000093D0010B584B001210846FFF71AF943
:1015F0004FF47A73ADF808304723ADF80430002477
:10160000ADF80A40ADF8064001A94FF08040FFF761
:101610002FF901214FF08040FFF7A8FA012211466F
:101620004FF08040FFF736FA01214FF08040FFF77E
:10163000CDF921460120FFF7F5F804B010BD00B543
:1016400083B04FF4E060FEF703FF1C238DF80430F5
:1016500000238DF8053003238DF8063001238DF823
:10166000073001A8FEF714FF03B05DF804FB08B5CE
:10167000FFF7B8FFFFF7E3FF01210846FFF7D2F8B5
:1016800008BD000010B582B001210420FFF7A4F8C6
:101690004FF40073ADF8043018238DF8073003239E
:1016A0008DF80630094C01A92046FEF73FFF4FF4A4
:1016B0008063ADF8043004238DF807300DEB03018F
:1016C0002046FEF733FF02B010BD00BF0008014006
:1016D00000B583B04FF4E060FEF7BAFE25238DF825
:1016E000043000238DF8053001238DF806308DF885
:1016F000073001A8FEF7CCFE03B05DF804FB000044
:1017000010B584B0FFF7BEFF01214FF48040FFF712
:1017100063F8104B00930023ADF80430ADF80630A9
:10172000ADF808300C22ADF80A20ADF80C300A4CA8
:1017300069462046FFF742FB012240F22551204630
:10174000FFF748FCFFF7C4FF01212046FFF70EFC1E
:1017500004B010BD804F12000038014070B506463D
:101760000D4600240AE0315D0648FFF7ABFC8021FE
:101770000448FFF7D3FC0028F9D00134AC42F2D37F
:1017800070BD00BF0038014030B583B00121042096
:10179000FFF722F80425ADF8045018238DF8073020
:1017A00003238DF80630094C0DEB05012046FEF7AA
:1017B000BDFE0823ADF804308DF807500DEB050190
:1017C0002046FEF7B3FE03B030BD00BF0008014065
:1017D00000B583B04FF4E060FEF73AFE26238DF8A3
:1017E000043003238DF8063001238DF8073001A85B
:1017F000FEF74EFE03B05DF804FB000010B584B0A8
:10180000FFF7C2FF01214FF40030FFF70BF8104B38
:1018100000930023ADF80430ADF80630ADF8083081
:101820000C22ADF80A20ADF80C300A4C694620466F
:10183000FFF7C4FA012240F225512046FFF7CAFB08
:10184000FFF7C6FF01212046FFF790FB04B010BD53
:10185000804F120000440040592A00D0704770B5F4
:101860000D46064600240AE0315D0648FFF72AFCD3
:1018700080210448FFF752FC0028F9D00134AC4223
:10188000F2D370BD0044004000B583B001210820B0
:10189000FEF7A2FF4FF48053ADF8043003238DF818
:1018A000063048238DF8073001A90348FEF73EFEB5
:1018B00003B05DF804FB00BF000C014010B582B01E
:1018C00001210820FEF788FF4FF46043ADF8043093
:1018D00003238DF8063010238DF807300A4C01A938
:1018E0002046FEF723FE4FF400512046FEF7E6FEA9
:1018F0004FF480412046FEF7B1FE4FF400412046F0
:10190000FEF7ACFE02B010BD000C014000B583B084
:1019100055238DF80730FFF7B7FFFFF7F1FEFFF70C
:10192000A6FEFFF76BFFFFF7C9FF03E0084B1A782D
:10193000084B1A70064B1B78002BFBD1054A127816
:101940009342F3D001210DF10700FFF707FFEDE708
:10195000350000203400002000B583B055238DF8F9
:10196000073001214FF08040FFF75CF958B10C4A75
:10197000136801331360B3F57A7F07D201214FF06A
:101980008040FFF7BFF903B05DF804FB0022044B71
:101990001A60592201210DF10700FFF75DFFEDE705
:1019A0002C010020014B1868704700BF3800002050
:1019B000034613F8012B002AFBD1181A013870478F
:1019C00030B5141E05469BB0184605DA8B234FF040
:1019D000FF302B601BB030BD4FF40273ADF80C30FC
:1019E0000CBF234604F1FF33029305934FF6FF73B8
:1019F00000910491ADF80E3002461E9B69462846C0
:101A000000F074F8431CBCBF8B232B60002CE1D08A
:101A10000022009B1A70DDE707B5009313460A46C3
:101A2000014603480068FFF7CBFF03B05DF804FBF5
:101A3000380000202DE9F0478E6882469E420C4611
:101A40009146984635D88A8912F4906F31D0022396
:101A5000256809696F1A656905EB450595FBF3F57E
:101A600008F101033B449D4238BF1D46530531D563
:101A7000294600F047FB064650B90C23CAF800304F
:101A8000A3894FF0FF3043F04003A381BDE8F08706
:101A90003A46216900F0C4FAA38923F4906343F025
:101AA0008003A38126613E44266046466561ED1BA6
:101AB000A560464528BF464649463246206800F0A4
:101AC000BAFAA36800209B1BA36023681E4426600B
:101AD000BDE8F0872A4600F073FB06460028E1D1F6
:101AE0002169504600F0C2FAC7E700002DE9F04F27
:101AF0009DB003938B8980461C060D4616460FD574
:101B00000B696BB9402100F0FDFA2860286128B903
:101B10000C23C8F800304FF0FF30C4E040236B6165
:101B20000023099320238DF8293030234FF0010B37
:101B30008DF82A3037463C4614F8013B002B3CD147
:101B4000B7EB060A0BD05346324629464046FFF70C
:101B500071FF013000F0A280099B534409933B7848
:101B6000002B00F09B8000234FF0FF32049307937B
:101B7000059206938DF853301A9305222178504828
:101B800000F040FA671C049BD8B9D90644BF202254
:101B90008DF853201A0744BF2B228DF8532022784A
:101BA0002A2A16D000210A20079A27463B780134BA
:101BB000303B092B50D9C9B111E0252BC0D02746A5
:101BC000B9E73F4A3C46801A0BFA00F018430490EC
:101BD000D3E7039A111D12680391002A01DB0792D3
:101BE00004E0524243F00203079204933B782E2B09
:101BF0000DD17B78791C2A2B32D1039B02371A1D19
:101C00001B680392002BB8BF4FF0FF3305932D4C98
:101C100003223978204600F0F5F938B14023001B43
:101C200003FA00F0049B013703430493397806223A
:101C300025487E1C8DF8281000F0E4F9002835D0E6
:101C4000224BFBB9039B073323F0070308330393AD
:101C5000099B4B4409936DE700FB02320121A4E785
:101C600000230A24184605930F463A780131303A8A
:101C7000092A03D9002BCAD00590C8E704FB00202D
:101C80000123F1E703AB00932A46114B04A9404618
:101C9000AFF30080B0F1FF3F8146D9D1AB895B063D
:101CA0003FF539AF09981DB0BDE8F08F03AB009345
:101CB0002A46074B04A9404600F084F8EAE700BF33
:101CC000BC240008C2240008C6240008000000004C
:101CD000351A00082DE9F04791461F468A680B69BE
:101CE00006469342B8BF1346C9F8003091F8432026
:101CF0000C46DDF8208012B10133C9F800302368AA
:101D0000990642BFD9F800300233C9F8003025687F
:101D100015F0060507D104F1190AE368D9F8002087
:101D20009B1A9D422ADB94F843302268003318BF87
:101D3000012392062FD404F1430239463046C047AE
:101D4000013022D02368E56803F00603042B18BF96
:101D50000025D9F800204FF0000908BFAD1AA3688C
:101D6000226908BF25EAE5759342C4BF9B1AED18A6
:101D70001A344D451BD10020BDE8F087012352469F
:101D800039463046C047013003D14FF0FF30BDE83F
:101D9000F0870135C1E73020E11881F843005A1C73
:101DA00094F845102244023382F84310C3E701231C
:101DB000224639463046C0470130E6D009F10109D4
:101DC000D7E700002DE9F04317460A7E85B06E2A5A
:101DD000984606460C460C9B01F1430E00F0BC8071
:101DE0001AD8632A2ED00AD8002A00F0C880582AB0
:101DF00000F08A8004F1420584F842202AE0642A37
:101E000001D0692AF6D121681A6811F0800F23D019
:101E1000111D1960136827E0732A00F0B48008D8F8
:101E20006F2A2AD0702AE5D10A6842F020020A609F
:101E300003E0752A21D0782ADCD178226F4984F812
:101E4000452064E01A6801F14205111D196013680C
:101E500084F842300123A3E011F0400F02F10401A5
:101E60001960D7D0B2F90030002B03DA2D225B4283
:101E700084F8432062490A2217E02068196810F0AC
:101E8000800F03D0081D18600B6806E010F0400FAB
:101E900001F104001860F7D00B886F2A14BF0A22E2
:101EA00008225749002084F843006568002DA5608A
:101EB000C0F29C80206820F004002060002B3FD1FD
:101EC000002D40F095807546082A0BD12368DA076B
:101ED00008D5236962689A42DEBF302305F8013CC9
:101EE00005F1FF35AEEB05032361CDF800803B46DD
:101EF00003AA21463046FFF7EDFE013055D14FF0E1
:101F0000FF3005B0BDE8F08381F845203C492268E8
:101F1000186812F0800F00F104051D6001D00368FD
:101F200002E05506FBD50388D00744BF42F02002EB
:101F300022601BB9226822F0200222601022B1E741
:101F40007546B3FBF2F002FB1033CB5C05F8013DA4
:101F500003460028F5D1B7E708681A6810F0800F2B
:101F6000496904D0101D18601368196007E010F06B
:101F7000400F02F1040018601368F6D019800023A6
:101F800075462361B1E71A68111D196015680021B3
:101F90006268284600F036F808B1401B606063684C
:101FA0002361002384F843309FE723692A4639469A
:101FB0003046C0470130A2D023689B0707D50025D3
:101FC00004F11909E368039A9B1A9D4205DBE06856
:101FD000039B9842B8BF184693E701234A46394607
:101FE0003046C04701308AD00135EBE7002BA7D13E
:101FF0000B7804F1420584F8423065E7DE240008DE
:10200000CD24000810B5C9B202449042034601D164
:10201000002010BD1C7801308C42F6D1184610BD4E
:1020200010B5431E0A44914200D110BD11F8014B76
:1020300003F8014FF7E7884210B501EB020303D81C
:10204000421E99420CD110BD9842F9D28118D21A81
:10205000D34200D110BD13F8014D01F8014DF7E74F
:1020600011F8014B02F8014FEBE7000038B50546C7
:10207000002943D051F8043C0C1F002BB8BFE418D2
:1020800000F0D4F81E4A1368104633B96360146038
:102090002846BDE8384000F0CAB8A3420BD92168F1
:1020A0006218934201BF1A685B685218226063602D
:1020B0000460EDE713465A680AB1A242FAD91968DA
:1020C0005818A0420BD12068014458188242196068
:1020D000DED110685268014419605A60D8E702D90D
:1020E0000C232B60D4E7206821188A4201BF1168B5
:1020F00052680918216062605C60C9E738BD00BFA2
:102100003001002070B5CD1C25F0030508350C2DDD
:1021100038BF0C25002D064601DBA94203D90C234C
:102120003360002070BD00F081F8234A1468214616
:1021300091B9224C23681BB9304600F067F8206043
:102140002946304600F062F8431C26D10C23304665
:10215000336000F06CF8E4E70B685B1B1AD40B2BC0
:102160000FD90B60CC18CD50304600F060F804F168
:102170000B00231D20F00700C31A1BD05A42E25067
:1021800070BD8C420BBF63684B681360636018BFFF
:102190000C46E9E70C464968CAE7C41C24F003046E
:1021A000A04205D0211A304600F030F80130CDD0E1
:1021B0002560D9E770BD00BF300100203401002048
:1021C000F8B5074614460E4621B91146BDE8F84059
:1021D000FFF798BF22B9FFF749FF25462846F8BD0B
:1021E00000F026F884420FD921463846FFF78AFFCF
:1021F00005460028F2D031462246FFF711FF31464E
:102200003846FFF733FFE9E73546E7E738B50023FF
:10221000054C054608462360FEF7E2FF431C02D149
:10222000236803B12B6038BD380100207047704728
:1022300051F8040C0028A0F10400BCBF0B58C018D2
:10224000704700002E2E2F73797374656D2F737293
:10225000632F73746D333266312D737464706572DD
:102260006970682F6D6973632E6300002E2E2F73C3
:10227000797374656D2F7372632F73746D33326667
:10228000312D7374647065726970682F73746D3367
:1022900032663130785F6770696F2E63000000002E
:1022A0002E2E2F73797374656D2F7372632F737471
:1022B0006D333266312D7374647065726970682F86
:1022C00073746D3332663130785F7263632E6300EE
:1022D0002E2E2F73797374656D2F7372632F737441
:1022E0006D333266312D7374647065726970682F56
:1022F00073746D3332663130785F74696D2E6300AC
:102300002E2E2F73797374656D2F7372632F737410
:102310006D333266312D7374647065726970682F25
:1023200073746D3332663130785F75736172742EF9
:102330006300000061626F727428292C206578693F
:1023400074696E672E2E2E006173736572745F70F0
:102350006172616D2829206661696C65643A206646
:10236000696C6520222573222C206C696E652025FE
:10237000640A0000537461636B206672616D653A94
:102380000A000000205230203D2020253038580A15
:1023900000000000205231203D2020253038580A0E
:1023A00000000000205232203D2020253038580AFD
:1023B00000000000205233203D2020253038580AEC
:1023C0000000000020523132203D20253038580ACC
:1023D00000000000204C52203D2020253038580AB3
:1023E00000000000205043203D2020253038580AAE
:1023F0000000000020505352203D20253038580A5C
:10240000000000004653522F4641523A0A00000095
:102410002043465352203D2020253038580A0000E2
:102420002048465352203D2020253038580A0000CD
:102430002044465352203D2020253038580A0000C1
:102440002041465352203D2020253038580A0000B4
:10245000204D4D464152203D20253038580A00007D
:102460002042464152203D2020253038580A0000A5
:102470004D6973630A000000204C522F4558435F9A
:1024800052455455524E3D20253038580A00000020
:102490005B486172644661756C745D0A00000000FF
:1024A0005B4275734661756C745D0A005B557361C0
:1024B00067654661756C745D0A000000232D302B42
:1024C0002000686C4C006566674546470030313235
:1024D000333435363738394142434445460030318C
:0F24E000323334353637383961626364656600EC
:1024F00078563412020406080000000001020304AA
:102500000102030406070809A800002000000000DB
:102510000000000000000000010203040607080993
:1025200000A24A040101FFFF3C000020000000005F
:10253000000000000000000000000000000000009B
:10254000000000000000000000000000000000008B
:10255000000000000000000000000000000000007B
:10256000000000000000000000000000000000006B
:10257000000000000000000000000000000000005B
:1025800000000000000000000000000032547698B7
:04000005080001E509
:00000001FF
